:0400000006EF00F017
:100008007BED05F010EE80F0D5EF0CF0080EE12640
:10001800000EE222F29EF60EE3CFD9FFF70EE3CFF1
:10002800DAFF000EDF6EF60EE3CF12F0F70EE3CF25
:1000380013F00D0E1224D96E000E1320DA6EDE5066
:10004800DE10D8B42AEF00F02CEF00F0C5EF02F074
:10005800F60EE3CF12F0F70EE3CF13F00B0E1224D7
:10006800D96E000E1320DA6EDECF12F0DDCF13F05A
:10007800D8901234106E1334116EF60EE350102619
:10008800F70EE3501122010E1024D96E000E112034
:10009800DA6EDECF12F0DDCF13F0740E1202F3CF5A
:1000A80010F0F4CF11F01302F3501126290E10248A
:1000B800D96E040E1120DA6E000EDF6EF60EE3CF55
:1000C80012F0F70EE3CF13F00B0E1224D96E000EC8
:1000D8001320DA6EDECF12F0DDCF13F0010E1226F8
:1000E800000E1322030E1216000E1316F60EE3CF9F
:1000F80010F0F70EE3CF11F00B0E1024D96E000E9E
:100108001120DA6E12C0DEFF13C0DDFFF60EE3CF5A
:1001180012F0F70EE3CF13F00D0E1224D96E000E75
:100128001320DA6EDE06000EDD5AFE0EE36AFF0EBD
:10013800E36AFC0EFEC5E3FFFD0EFFC5E3FFF29E7A
:10014800FC0EE3CF12F0FD0EE3CF13F0740E120293
:10015800F3CF10F0F4CF11F01302F3501126290E4B
:100168001024D96E040E1120DA6EDE04D8A4BFEF75
:1001780000F0C1EF00F0A4EF01F0E050116E126A38
:10018800136AFC0EE3CF0EF0FD0EE3CF0FF0740EF2
:100198000E02F3CF0CF0F4CF0DF00F02F3500D2642
:1001A8001E0E0C24D96E040E0D20DA6E11C0DEFF6F
:1001B80012C0DEFF13C0DEFF116E126A136AFC0E56
:1001C800E3CF0EF0FD0EE3CF0FF0740E0E02F3CF67
:1001D8000CF0F4CF0DF00F02F3500D26210E0C2475
:1001E800D96E040E0D20DA6E11C0DEFF12C0DEFFDC
:1001F80013C0DEFFD850116E126A136AFC0EE3CFEB
:100208000EF0FD0EE3CF0FF0740E0E02F3CF0CF0DC
:10021800F4CF0DF00F02F3500D26240E0C24D96EE6
:10022800040E0D20DA6E11C0DEFF12C0DEFF13C00F
:10023800DEFFFE0EE3CF12F0FF0EE3CF13F0030E46
:100248001202F3CF10F0F4CF11F01302F35011267D
:10025800FC0EE3CF12F0FD0EE3CF13F0740E120282
:10026800F3CF0EF0F4CF0FF01302F3500F26B80EB1
:10027800126E030E136E060E1226000E13220E5077
:1002880012260F50132210501224D96E1150132029
:10029800DA6EFDCFDEFFFECFDEFFFFCFDEFF06000A
:1002A800FE0EE350010F086EFE0E08C0E3FF086A59
:1002B800FF0EE3500820086EFF0E08C0E3FF018C14
:1002C800FC50D8A46AEF01F06CEF01F01DEF01F0CB
:1002D800E150FE0FD96EE250DA6EFF0EDA22FC0E04
:1002E800E3CF12F0FD0EE3CF13F0740E1202F3CF3A
:1002F80010F0F4CF11F01302F3501126270E10243A
:10030800E96E040E1120EA6EDECFEEFFDDCFEDFFC1
:10031800018AFC0EE3CF12F0FD0EE3CF13F0740E4A
:100328001202F3CF10F0F4CF11F01302F35011269C
:10033800290E1024D96E040E1120DA6E000EDF6E1D
:10034800F28E5EEC0DF0F80EFEC5E3FFF90EFFC568
:10035800E3FFF80EE3CF12F0F90EE3CF13F0740EBB
:100368001202F3CF10F0F4CF11F01302F35011265C
:10037800270E1024D96E040E1120DA6EDECF12F08B
:10038800DDCF13F0FA0E12C0E3FFFB0E13C0E3FF3C
:10039800F29EFC6AF80EE3CF12F0F90EE3CF13F0E9
:1003A800740E1202F3CF10F0F4CF11F01302F350D1
:1003B8001126270E1024D96E040E1120DA6EDE5095
:1003C800DE10D8B4EAEF01F0ECEF01F08CEF02F0A8
:1003D800F80EE3CF12F0F90EE3CF13F0740E120209
:1003E800F3CF10F0F4CF11F01302F35011261E0EC4
:1003F8001024D96E040E1120DA6EDF50E06EF80E6C
:10040800E3CF12F0F90EE3CF13F0740E1202F3CF1C
:1004180010F0F4CF11F01302F3501126210E10241E
:10042800D96E040E1120DA6EDF50136E1350F80ED9
:10043800E3CF12F0F90EE3CF13F0740E1202F3CFEC
:1004480010F0F4CF11F01302F3501126240E1024EB
:10045800D96E040E1120DA6EDF50D86E7CEF02F0F0
:10046800FA0EE3CF08F0010E085EFA0E08C0E3FFAB
:10047800FB0EE3CF08F0000E085AFB0E08C0E3FF9E
:1004880005000188FA0EE3CF12F0FB0EE3CF13F05C
:10049800030E1202F3CF10F0F4CF11F01302F35051
:1004A8001126F80EE3CF12F0F90EE3CF13F0740E15
:1004B8001202F3CF0EF0F4CF0FF01302F3500F2611
:1004C800B80E126E030E136E060E1226000E1322BD
:1004D8000E5012260F50132210501224D96E1150AC
:1004E8001320DA6EDECFFDFFDECFFEFFDDCFFFFF8C
:1004F8000186FA0EE3CF08F0FB0EE3500810D8A4EB
:1005080088EF02F08AEF02F034EF02F0ACEF02F06D
:1005180005000184F80EE3CF12F0F90EE3CF13F0D3
:10052800740E1202F3CF10F0F4CF11F01302F3504F
:100538001126BC0E1024D96E030E1120DA6EDECF00
:1005480012F0DDCF13F012C0FDFF13C0FEFFFF6AEB
:10055800F80EE3CF12F0F90EE3CF13F0740E120287
:10056800F3CF10F0F4CF11F01302F3501126290E37
:100578001024D96E040E1120DA6E010EDF6E01828E
:10058800F28EF28E0180F60EE126FF0EE2221200B4
:10059800080EE126000EE222F29EF60EE3CFD9FF06
:1005A800F70EE3CFDAFFDF50D8A4DDEF02F0DFEF7C
:1005B80002F0EAEF02F0028CF60EE3CFD9FFF70E55
:1005C800E3CFDAFF010EDF6E74EF05F025EEFEF0E3
:1005D800F60EE3CF12F0F70EE3CF13F0090E122454
:1005E800E96E000E1320EA6EEECF12F0EDCF13F095
:1005F800D8901234106E1334116EF60EE350102694
:10060800F70EE3501122010E1024E96E000E11209E
:10061800EA6EDECFEEFFDDCFEDFFF60EE3CF12F090
:10062800F70EE3CF13F0090E1224D96E000E132033
:10063800DA6EDECF12F0DDCF13F0010E1226000EB7
:100648001322030E1216000E1316F60EE3CF10F047
:10065800F70EE3CF11F0090E1024D96E000E112009
:10066800DA6E12C0DEFF13C0DDFFF60EE3CF12F024
:10067800F70EE3CF13F00D0E1224D96E000E1320DF
:10068800DA6EDE2A000EDD22FE0EE36AFF0EE36A52
:10069800FC0EFEC5E3FFFD0EFFC5E3FFF29EFC0E58
:1006A800E3CF12F0FD0EE3CF13F0740E1202F3CF76
:1006B80010F0F4CF11F01302F3501126290E102474
:1006C800D96E040E1120DA6EDE04D8A46EEF03F0A2
:1006D80070EF03F053EF04F0E050116E126A136AE2
:1006E800FC0EE3CF0EF0FD0EE3CF0FF0740E0E02FA
:1006F800F3CF0CF0F4CF0DF00F02F3500D261E0EC1
:100708000C24D96E040E0D20DA6E11C0DEFF12C063
:10071800DEFF13C0DEFF116E126A136AFC0EE3CF10
:100728000EF0FD0EE3CF0FF0740E0E02F3CF0CF0B7
:10073800F4CF0DF00F02F3500D26210E0C24D96EC4
:10074800040E0D20DA6E11C0DEFF12C0DEFF13C0EA
:10075800DEFFD850116E126A136AFC0EE3CF0EF05A
:10076800FD0EE3CF0FF0740E0E02F3CF0CF0F4CFB2
:100778000DF00F02F3500D26240E0C24D96E040E32
:100788000D20DA6E11C0DEFF12C0DEFF13C0DEFFDF
:10079800FE0EE3CF12F0FF0EE3CF13F0030E1202AA
:1007A800F3CF10F0F4CF11F01302F3501126FC0E22
:1007B800E3CF12F0FD0EE3CF13F0740E1202F3CF65
:1007C8000EF0F4CF0FF01302F3500F26B80E126E8E
:1007D800030E136E060E1226000E13220E5012265A
:1007E8000F50132210501224D96E11501320DA6EB4
:1007F800FDCFDEFFFECFDEFFFFCFDEFF0600FE0EE1
:10080800E350010F086EFE0E08C0E3FF086AFF0EF2
:10081800E3500820086EFF0E08C0E3FF028AFC5070
:10082800D8A419EF04F01BEF04F0CCEF03F0E1506B
:10083800FE0FD96EE250DA6EFF0EDA22FC0EE3CF1D
:1008480012F0FD0EE3CF13F0740E1202F3CF10F086
:10085800F4CF11F01302F3501126270E1024E96E7D
:10086800040E1120EA6EDECFEEFFDDCFEDFF028829
:10087800FC0EE3CF12F0FD0EE3CF13F0740E12025C
:10088800F3CF10F0F4CF11F01302F3501126290E14
:100898001024D96E040E1120DA6E030EDF6EF28E6C
:1008A8005EEC0DF0F80EFEC5E3FFF90EFFC5E3FFA1
:1008B800F80EE3CF12F0F90EE3CF13F0740E120224
:1008C800F3CF10F0F4CF11F01302F3501126270ED6
:1008D8001024D96E040E1120DA6EDECF12F0DDCFAF
:1008E80013F0FA0E12C0E3FFFB0E13C0E3FFF29EF3
:1008F800FC6AF80EE3CF12F0F90EE3CF13F0740E92
:100908001202F3CF10F0F4CF11F01302F3501126B6
:10091800270E1024D96E040E1120DA6EDE50DE1078
:10092800D8B499EF04F09BEF04F03BEF05F0F80E14
:10093800E3CF12F0F90EE3CF13F0740E1202F3CFE7
:1009480010F0F4CF11F01302F35011261E0E1024EC
:10095800D96E040E1120DA6EDF50E06EF80EE3CF88
:1009680012F0F90EE3CF13F0740E1202F3CF10F069
:10097800F4CF11F01302F3501126210E1024D96E72
:10098800040E1120DA6EDF50136E1350F80EE3CF09
:1009980012F0F90EE3CF13F0740E1202F3CF10F039
:1009A800F4CF11F01302F3501126240E1024D96E3F
:1009B800040E1120DA6EDF50D86E2BEF05F0FA0E18
:1009C800E3CF08F0010E085EFA0E08C0E3FFFB0E45
:1009D800E3CF08F0000E085AFB0E08C0E3FF05003D
:1009E8000286FA0EE3CF12F0FB0EE3CF13F0030EEC
:1009F8001202F3CF10F0F4CF11F01302F3501126C6
:100A0800F80EE3CF12F0F90EE3CF13F0740E1202D2
:100A1800F3CF0EF0F4CF0FF01302F3500F26B80EF9
:100A2800126E030E136E060E1226000E13220E50BF
:100A380012260F50132210501224D96E1150132071
:100A4800DA6EDECFFDFFDECFFEFFDDCFFFFF0284D3
:100A5800FA0EE3CF08F0FB0EE3500810D8A437EFE6
:100A680005F039EF05F0E3EF04F05BEF05F0050062
:100A78000282F80EE3CF12F0F90EE3CF13F0740EF2
:100A88001202F3CF10F0F4CF11F01302F350112635
:100A9800BC0E1024D96E030E1120DA6EDECF12F0D0
:100AA800DDCF13F012C0FDFF13C0FEFFFF6AF80E82
:100AB800E3CF12F0F90EE3CF13F0740E1202F3CF66
:100AC80010F0F4CF11F01302F3501126290E102460
:100AD800D96E040E1120DA6E010EDF6E0280F28EDE
:100AE800F28E018EF60EE126FF0EE22212000600BB
:100AF800E1CF2BF0E2CF2CF0D9CF2DF0DACF2EF0CA
:100B0800F3CF2FF0F4CF30F008C031F009C032F045
:100B180010C033F011C034F012C035F013C036F0F5
:100B280011EE94F0F2A29BEF05F09DEF05F0A1EF16
:100B380005F00686F292D2EF07F00684F2A4A7EF3A
:100B480005F0A9EF05F0D2EF07F0F294000ED76E8A
:100B5800400ED66E3B6A3C6A0EEF06F0740EE66EE7
:100B6800000EE66E3BC0E6FF3CC0E6FFC9EC0BF0AA
:100B78002A0E0824D96E040E0920DA6EDE50DE1023
:100B8800D8B4C9EF05F0CBEF05F00BEF06F00682FD
:100B9800740EE66E000EE66E3BC0E6FF3CC0E6FF54
:100BA800C9EC0BF02A0E0824D96E040E0920DA6E5F
:100BB800DE06000EDD5A740EE66E000EE66E3BC0D1
:100BC800E6FF3CC0E6FFC9EC0BF02A0E0824D96EFC
:100BD800040E0920DA6EDE50DE10D8A4F6EF05F018
:100BE800F8EF05F00BEF06F00680740EE66E000EC7
:100BF800E66E3BC0E6FF3CC0E6FFC9EC0BF0290EF1
:100C08000824D96E040E0920DA6E000EDF6E058EF8
:100C18003B4A3C2A25EEFCF0DE503B5CDE503C585B
:100C2800D8A019EF06F01BEF06F0B2EF05F050065A
:100C3800D8A05106058C50505110D8A426EF06F0C4
:100C480028EF06F0D2EF07F0000E516E080E506E36
:100C5800376A386AFEC53DF0FFC53EF0F29E740E55
:100C6800E66E000EE66E3DC0E6FF3EC0E6FFC9EC4C
:100C78000BF0290E0824D96E040E0920DA6EDE0462
:100C8800D8A449EF06F04BEF06F0F7EF06F0E05076
:100C9800286E296A2A6A740EE66E000EE66E3DC05A
:100CA800E6FF3EC0E6FFC9EC0BF01E0E0824D96E25
:100CB800040E0920DA6E28C0DEFF29C0DEFF2AC034
:100CC800DEFF286E296A2A6A740EE66E000EE66E4A
:100CD8003DC0E6FF3EC0E6FFC9EC0BF0210E08243C
:100CE800D96E040E0920DA6E28C0DEFF29C0DEFFA7
:100CF8002AC0DEFFD850286E296A2A6A740EE66E6A
:100D0800000EE66E3DC0E6FF3EC0E6FFC9EC0BF004
:100D1800240E0824D96E040E0920DA6E28C0DEFFDE
:100D280029C0DEFF2AC0DEFF740EE66E000EE66EF6
:100D38003DC0E6FF3EC0E6FFC9EC0BF0B80E286EDA
:100D4800030E296E060E2826000E29220850282692
:100D580009502922030EE66E000EE66E37C0E6FF44
:100D680038C0E6FFC9EC0BF008502824D96E0950AA
:100D78002920DA6EFDCFDEFFFECFDEFFFFCFDEFFDC
:100D88000600374A382A058AFC50D8A4CEEF06F068
:100D9800D0EF06F098EF06F00588740EE66E000EA8
:100DA800E66E3DC0E6FF3EC0E6FFC9EC0BF0270E3D
:100DB8000824D96E040E0920DA6E37C0DEFF38C069
:100DC800DDFF740EE66E000EE66E3DC0E6FF3EC027
:100DD800E6FFC9EC0BF0290E0824D96E040E092091
:100DE800DA6E000EDF6EF28E5EEC0DF0FEC53FF09F
:100DF800FFC540F0740EE66E000EE66E3FC0E6FFDB
:100E080040C0E6FFC9EC0BF0270E0824D96E040E8B
:100E18000920DA6EDECF39F0DDCF3AF0F29EFC6AB7
:100E2800740EE66E000EE66E3FC0E6FF40C0E6FFB9
:100E3800C9EC0BF0270E0824D96E040E0920DA6ECF
:100E4800DE50DE10D8B42BEF07F02DEF07F0A3EF3C
:100E580007F0740EE66E000EE66E3FC0E6FF40C077
:100E6800E6FFC9EC0BF01E0E0824D96E040E09200B
:100E7800DA6EDF50E06E740EE66E000EE66E3FC06E
:100E8800E6FF40C0E6FFC9EC0BF0210E0824D96E3E
:100E9800040E0920DA6EDF50286E2850740EE66EB4
:100EA800000EE66E3FC0E6FF40C0E6FFC9EC0BF05F
:100EB800240E0824D96E040E0920DA6EDF50D86E8D
:100EC80097EF07F03906D8A03A0605000586740E94
:100ED800E66E000EE66E3FC0E6FF40C0E6FFC9ECD6
:100EE8000BF0B80E286E030E296E060E2826000E8B
:100EF80029220850282609502922030EE66E000EE2
:100F0800E66E39C0E6FF3AC0E6FFC9EC0BF00850C0
:100F18002824D96E09502920DA6EDECFFDFFDECFF6
:100F2800FEFFDDCFFFFF058439503A10D8A49FEFAC
:100F380007F0A1EF07F066EF07F0BEEF07F0050036
:100F48000582740EE66E000EE66E3FC0E6FF40C0F6
:100F5800E6FFC9EC0BF0BC0E0824D96E030E09207D
:100F6800DA6EDECF28F0DDCF29F028C0FDFF29C0DA
:100F7800FEFFFF6A740EE66E000EE66E3FC0E6FFE7
:100F880040C0E6FFC9EC0BF0290E0824D96E040E08
:100F98000920DA6E010EDF6E0580F28E048E36C0EF
:100FA80013F035C012F034C011F033C010F032C065
:100FB80009F031C008F030C0F4FF2FC0F3FF2EC095
:100FC800DAFF2DC0D9FF2CC0E2FF2BC0E1FF1100D2
:100FD800080EE126000EE222F29EE150F60FD96ECD
:100FE800E250DA6EFF0EDA2205EEFEF0EECF12F0D6
:100FF800EDCF13F0740E1202F3CF10F0F4CF11F00E
:101008001302F35011262A0E1024E96E040E112043
:10101800EA6EDECFEEFFDDCFEDFFFE0EE36AFF0ED8
:10102800E36AFC0EFEC5E3FFFD0EFFC5E3FFF29E7B
:10103800FC0EE3CF12F0FD0EE3CF13F0740E120294
:10104800F3CF10F0F4CF11F01302F3501126290E4C
:101058001024D96E040E1120DA6EDE04D8A437EFFE
:1010680008F039EF08F01CEF09F0E050116E126A31
:10107800136AFC0EE3CF0EF0FD0EE3CF0FF0740EF3
:101088000E02F3CF0CF0F4CF0DF00F02F3500D2643
:101098001E0E0C24D96E040E0D20DA6E11C0DEFF70
:1010A80012C0DEFF13C0DEFF116E126A136AFC0E57
:1010B800E3CF0EF0FD0EE3CF0FF0740E0E02F3CF68
:1010C8000CF0F4CF0DF00F02F3500D26210E0C2476
:1010D800D96E040E0D20DA6E11C0DEFF12C0DEFFDD
:1010E80013C0DEFFD850116E126A136AFC0EE3CFEC
:1010F8000EF0FD0EE3CF0FF0740E0E02F3CF0CF0DE
:10110800F4CF0DF00F02F3500D26240E0C24D96EE7
:10111800040E0D20DA6E11C0DEFF12C0DEFF13C010
:10112800DEFFFE0EE3CF12F0FF0EE3CF13F0030E47
:101138001202F3CF10F0F4CF11F01302F35011267E
:10114800FC0EE3CF12F0FD0EE3CF13F0740E120283
:10115800F3CF0EF0F4CF0FF01302F3500F26B80EB2
:10116800126E030E136E060E1226000E13220E5078
:1011780012260F50132210501224D96E115013202A
:10118800DA6EFDCFDEFFFECFDEFFFFCFDEFF06000B
:10119800FE0EE350010F086EFE0E08C0E3FF086A5A
:1011A800FF0EE3500820086EFF0E08C0E3FF048816
:1011B800FC50D8A4E2EF08F0E4EF08F095EF08F04F
:1011C800E150FE0FD96EE250DA6EFF0EDA22FC0E05
:1011D800E3CF12F0FD0EE3CF13F0740E1202F3CF3B
:1011E80010F0F4CF11F01302F3501126270E10243B
:1011F800E96E040E1120EA6EDECFEEFFDDCFEDFFC3
:101208000486FC0EE3CF12F0FD0EE3CF13F0740E4C
:101218001202F3CF10F0F4CF11F01302F35011269D
:10122800290E1024D96E040E1120DA6E020EDF6E1C
:10123800F28E5EEC0DF0F80EFEC5E3FFF90EFFC569
:10124800E3FFF80EE3CF12F0F90EE3CF13F0740EBC
:101258001202F3CF10F0F4CF11F01302F35011265D
:10126800270E1024D96E040E1120DA6EDECF12F08C
:10127800DDCF13F0FA0E12C0E3FFFB0E13C0E3FF3D
:10128800F29EFC6AF80EE3CF12F0F90EE3CF13F0EA
:10129800740E1202F3CF10F0F4CF11F01302F350D2
:1012A8001126270E1024D96E040E1120DA6EDE5096
:1012B800DE10D8B462EF09F064EF09F004EF0AF029
:1012C800F80EE3CF12F0F90EE3CF13F0740E12020A
:1012D800F3CF10F0F4CF11F01302F35011261E0EC5
:1012E8001024D96E040E1120DA6EDF50E06EF80E6D
:1012F800E3CF12F0F90EE3CF13F0740E1202F3CF1E
:1013080010F0F4CF11F01302F3501126210E10241F
:10131800D96E040E1120DA6EDF50136E1350F80EDA
:10132800E3CF12F0F90EE3CF13F0740E1202F3CFED
:1013380010F0F4CF11F01302F3501126240E1024EC
:10134800D96E040E1120DA6EDF50D86EF4EF09F072
:10135800FA0EE3CF08F0010E085EFA0E08C0E3FFAC
:10136800FB0EE3CF08F0000E085AFB0E08C0E3FF9F
:1013780005000484FA0EE3CF12F0FB0EE3CF13F05E
:10138800030E1202F3CF10F0F4CF11F01302F35052
:101398001126F80EE3CF12F0F90EE3CF13F0740E16
:1013A8001202F3CF0EF0F4CF0FF01302F3500F2612
:1013B800B80E126E030E136E060E1226000E1322BE
:1013C8000E5012260F50132210501224D96E1150AD
:1013D8001320DA6EDECFFDFFDECFFEFFDDCFFFFF8D
:1013E8000482FA0EE3CF08F0FB0EE3500810D8A4ED
:1013F80000EF0AF002EF0AF0ACEF09F024EF0AF070
:1014080005000480F80EE3CF12F0F90EE3CF13F0D5
:10141800740E1202F3CF10F0F4CF11F01302F35050
:101428001126BC0E1024D96E030E1120DA6EDECF01
:1014380012F0DDCF13F012C0FDFF13C0FEFFFF6AEC
:10144800F80EE3CF12F0F90EE3CF13F0740E120288
:10145800F3CF10F0F4CF11F01302F3501126290E38
:101468001024D96E040E1120DA6E010EDF6EF28E92
:10147800038EF60EE126FF0EE2221200E652E65235
:10148800E652E652FE0EE36AFF0EE36A25EEFCF032
:10149800DECF12F0DDCF13F012C0E6FF13C0E6FF77
:1014A80025EEFEF0DECF12F0DDCF13F0010E12268E
:1014B800000E132212C0E6FF13C0E6FF55EC0BF036
:1014C800FC0E08C0E3FFFD0E09C0E3FF25EEFCF0AB
:1014D800FE0EE350010F086EFE0E08C0E3FF086A17
:1014E800FF0EE3500820086EFF0E08C0E3FFFE0E53
:1014F800E350DE1808E1FF0EE350DE18D8A487EFAA
:101508000AF089EF0AF090EF0AF00388000E086EDF
:10151800000E096ED6EF0AF0FC0EE3CF12F0FD0EB6
:10152800E3CF13F0740E1202F3CF10F0F4CF11F0E2
:101538001302F3501126290E1024D96E040E11201F
:10154800DA6EDF50D8B4ABEF0AF0ADEF0AF0CFEFA8
:101558000AF00386FC0EE3CF12F0FD0EE3CF13F082
:10156800740E1202F3CF10F0F4CF11F01302F350FF
:101578001126BC0E1024D96E030E1120DA6E6E0EE1
:10158800DE1807E11A0EDE18D8A4CDEF0AF0CFEF67
:101598000AF04AEF0AF00384FC0EE3CF08F0FD0ED0
:1015A800E3CF09F00382E552E552E552E552120015
:1015B800740EE126000EE2228A0EE3CF08F08C0EAC
:1015C80008C0E3FF8B0EE3CF08F08D0E08C0E3FFE1
:1015D800E150880FD96EE250DA6EFF0EDA228E0ED5
:1015E800E124E96EFF0EE220EA6EDECFEEFFDDCFEA
:1015F800EDFFE150860FD96EE250DA6EFF0EDA2267
:10160800900EE124E96EFF0EE220EA6EDECFEEFFD7
:10161800DDCFEDFFFD0EE124D96EFF0EE220DA6E7C
:10162800000EDF6EFB0EE124D96EFF0EE220DA6EAB
:10163800000EDE6E000EDD6EFE0EE124D96EFF0E8A
:10164800E220DA6E000EDE6E000EDD6E8C0EE124F6
:10165800D96EFF0EE220DA6E05EEFCF0EECF12F046
:10166800EDCF13F0740E1202F3CF10F0F4CF11F097
:101678001302F3501126B80E1024E96E030E112040
:10168800EA6E730EDBCFEBFFE806FCE225EEFCF01A
:10169800DE2A000EDD22048A860EE126FF0EE222F3
:1016A8001200E652FB0EE3CF12F0FC0EE3501210CC
:1016B800D8B461EF0BF063EF0BF0BEEF0BF0FF0E49
:1016C800E36AE32A79EF0BF0FB0EE350D890E83495
:1016D800126EFB0E12C0E3FFFC0EE350E834126EEC
:1016E800FC0E12C0E3FFFF0EE32AFC0EE3AE7FEF11
:1016F8000BF081EF0BF068EF0BF0FB0EE3CF12F06D
:10170800FC0EE3CF13F0FD0EE3CF10F0FE0EE3CF97
:1017180011F01250105C13501158D8A096EF0BF02E
:1017280098EF0BF0AAEF0BF0FD0EE350126EFB0ED4
:10173800E350125EFD0E12C0E3FFFE0EE350126E80
:10174800FC0EE350125AFE0E12C0E3FFD890FC0EB6
:10175800E332FB0EE332FF0EE350126E010E125E0F
:10176800FF0E12C0E3FFD8A4BCEF0BF0BEEF0BF0E6
:1017780081EF0BF0FD0EE3CF08F0FE0EE3CF09F08A
:10178800FB0EE126FF0EE2221200E652E652FA0EA6
:10179800E3CF13F0FC0EE3501302FE0EF3CFE3FF8A
:1017A800FF0EF4CFE3FFFB0EE124D96EFF0EE2201B
:1017B800DA6EDF50136EFC0EE3501302F3CFF4FF22
:1017C800F36AE150FE0FD96EE250DA6EFF0EDA22AC
:1017D800F350DE26F450DD22FA0EE3CF13F0FD0EAF
:1017E800E124D96EFF0EE220DA6EDF501302F3CF48
:1017F800F4FFF36AE150FE0FD96EE250DA6EFF0E85
:10180800DA22F350DE26F450DD22FE0EE3CF08F094
:10181800FF0EE3CF09F0FA0EE126FF0EE2221200D6
:10182800FE0EE3CFD9FFFF0EE3CFDAFF000EDF6E27
:10183800FE0EE3CF12F0FF0EE3CF13F00D0E1224CD
:10184800D96E000E1320DA6E000EDE6E000EDD6E0D
:10185800FE0EE3CF12F0FF0EE3CF13F0090E1224B1
:10186800D96E000E1320DA6E000EDE6E000EDD6EED
:10187800FE0EE3CF12F0FF0EE3CF13F00B0E12248F
:10188800D96E000E1320DA6E000EDE6E000EDD6ECD
:10189800028EE552E552120083EC0CF05E0EE66E05
:1018A800190EE66E030EE66E000EE66E010EE66E8B
:1018B800000EE66EDCEC0AF0F40EE66E190EE66E2B
:1018C800020EE66E000EE66E020EE66E000EE66E84
:1018D800DCEC0AF0360EE66E1A0EE66E010EE66EC7
:1018E800000EE66E030EE66E000EE66EDCEC0AF005
:1018F80056EC0DF007807EEF0CF006EF00F0000EBE
:10190800E8CFFEF5000EE8CFFFF5000EE8CFFCF5B6
:10191800000EE8CFFDF56E0EE66E1A0EE66E000EAE
:10192800E66E000EE66E000EE66E000EE66EDCEC6D
:101938000AF094909380F288F292F28CF28AF294F0
:10194800D59ED59AD596D550F80B0509D56E4BEC92
:101958000DF0048C120083B0B4EF0CF0B7EF0CF06C
:10196800010EB8EF0CF0000EFF0A136E8C5013181E
:10197800FE0B13188C6E410EE66E000EE66ECCEC74
:1019880002F0580EE66E020EE66EECEC07F0068CDE
:10199800410EE66E000EE66E0AEC00F0AFEF0CF0BA
:1019A8001200CC0EF66E1A0EF76E000EF86E0900D5
:1019B800F5CF50F00900F5CF51F003EEB8F022EE64
:1019C80048F0EE6ADD50D950FCE1DA50FAE100EE59
:1019D80001F0070EEE6AE806FDE100EE41F00F0E99
:1019E800EE6AE806FDE1000150EF0CF0410EE66EEC
:1019F800000EE66ECCEC02F083B205EF0DF008EFB6
:101A08000DF0010E09EF0DF0000EFF0A136E1346DC
:101A18008C501318FD0B13188C6E068A410EE66E57
:101A2800000EE66E0AEC00F0FAEF0CF0120083B438
:101A380020EF0DF023EF0DF0010E24EF0DF0000E56
:101A4800FF0A136E134613468C501318FB0B13181A
:101A58008C6E06880A0EE66E000EE66EECEC07F059
:101A68001BEF0DF01200038A82B03DEF0DF040EF3E
:101A78000DF0010E41EF0DF0000EFF0A136E8B50B2
:101A88001318FE0B13188B6E37EF0DF0120095909C
:101A980095929594410EE66E000EE66E14EC0CF0ED
:101AA800068E1200F28ED58E000ED76E400ED66EC0
:101AB800038C120042EC0AF008C0FEF509C0FFF5DD
:061AC8000380120008007B
:020000040020DA
:08000000FFFFFFFFFFFFFFFF00
:020000040030CA
:0E000000FF071F1EFF8185FF0FC00FE00F409E
:00000001FF
