:0400000006EF00F017
:100008000AED00F010EE80F03CEF07F00600E1CFBB
:1000180029F0E2CF2AF0D9CF2BF0DACF2CF0F3CFAA
:100028002DF0F4CF2EF006C02FF007C030F00EC030
:1000380031F00FC032F010C033F011C034F011EEBF
:1000480094F0F2A22AEF00F02CEF00F030EF00F06D
:100058000486F29261EF02F00484F2A436EF00F015
:1000680038EF00F061EF02F0F294000ED76E400E08
:10007800D66E396A3A6A9DEF00F0740EE66E000E8D
:10008800E66E39C0E6FF3AC0E6FF58EC06F02A0EE5
:100098000624D96E040E0720DA6EDE50DE10D8B4BE
:1000A80058EF00F05AEF00F09AEF00F00482740E57
:1000B800E66E000EE66E39C0E6FF3AC0E6FF58EC81
:1000C80006F02A0E0624D96E040E0720DA6EDE0624
:1000D800000EDD5A740EE66E000EE66E39C0E6FFBD
:1000E8003AC0E6FF58EC06F02A0E0624D96E040E34
:1000F8000720DA6EDE50DE10D8A485EF00F087EF17
:1001080000F09AEF00F00480740EE66E000EE66EC2
:1001180039C0E6FF3AC0E6FF58EC06F0290E06247F
:10012800D96E040E0720DA6E000EDF6E038E394A90
:100138003A2A25EEFCF0DE50395CDE503A58D8A059
:10014800A8EF00F0AAEF00F041EF00F03F06D8A0BA
:100158004006038C3F504010D8A4B5EF00F0B7EF2D
:1001680000F061EF02F0000E406E080E3F6E356A37
:10017800366AFEC53BF0FFC53CF0F29E740EE66E93
:10018800000EE66E3BC0E6FF3CC0E6FF58EC06F00A
:10019800290E0624D96E040E0720DA6EDE04D8A4D0
:1001A800D8EF00F0DAEF00F086EF01F0E050266EAD
:1001B800276A286A740EE66E000EE66E3BC0E6FFFC
:1001C8003CC0E6FF58EC06F01E0E0624D96E040E5D
:1001D8000720DA6E26C0DEFF27C0DEFF28C0DEFF5C
:1001E800266E276A286A740EE66E000EE66E3BC01D
:1001F800E6FF3CC0E6FF58EC06F0210E0624D96E57
:10020800040E0720DA6E26C0DEFF27C0DEFF28C0F6
:10021800DEFFD850266E276A286A740EE66E000E36
:10022800E66E3BC0E6FF3CC0E6FF58EC06F0240E45
:100238000624D96E040E0720DA6E26C0DEFF27C01A
:10024800DEFF28C0DEFF740EE66E000EE66E3BC0D1
:10025800E6FF3CC0E6FF58EC06F0B80E266E030E2B
:10026800276E060E2626000E272206502626075041
:100278002722030EE66E000EE66E35C0E6FF36C096
:10028800E6FF58EC06F006502624D96E07502720C2
:10029800DA6EFDCFDEFFFECFDEFFFFCFDEFF06000A
:1002A800354A362A038AFC50D8A45DEF01F05FEF87
:1002B80001F027EF01F00388740EE66E000EE66E7B
:1002C8003BC0E6FF3CC0E6FF58EC06F0270E0624CC
:1002D800D96E040E0720DA6E35C0DEFF36C0DDFFAA
:1002E800740EE66E000EE66E3BC0E6FF3CC0E6FF0D
:1002F80058EC06F0290E0624D96E040E0720DA6E93
:10030800000EDF6EF28EADEC07F0FEC53DF0FFC5C6
:100318003EF0740EE66E000EE66E3DC0E6FF3EC08F
:10032800E6FF58EC06F0270E0624D96E040E0720C7
:10033800DA6EDECF37F0DDCF38F0F29EFC6A740E4D
:10034800E66E000EE66E3DC0E6FF3EC0E6FF58ECE6
:1003580006F0270E0624D96E040E0720DA6EDE504A
:10036800DE10D8B4BAEF01F0BCEF01F032EF02F0C2
:10037800740EE66E000EE66E3DC0E6FF3EC0E6FF78
:1003880058EC06F01E0E0624D96E040E0720DA6E0D
:10039800DF50E06E740EE66E000EE66E3DC0E6FFBE
:1003A8003EC0E6FF58EC06F0210E0624D96E040E76
:1003B8000720DA6EDF50266E2650740EE66E000EA9
:1003C800E66E3DC0E6FF3EC0E6FF58EC06F0240EA0
:1003D8000624D96E040E0720DA6EDF50D86E26EF99
:1003E80002F03706D8A0380605000386740EE66EBC
:1003F800000EE66E3DC0E6FF3EC0E6FF58EC06F094
:10040800B80E266E030E276E060E2626000E27222D
:100418000650262607502722030EE66E000EE66ECB
:1004280037C0E6FF38C0E6FF58EC06F00650262431
:10043800D96E07502720DA6EDECFFDFFDECFFEFF34
:10044800DDCFFFFF038437503810D8A42EEF02F019
:1004580030EF02F0F5EF01F04DEF02F005000382F6
:10046800740EE66E000EE66E3DC0E6FF3EC0E6FF87
:1004780058EC06F0BC0E0624D96E030E0720DA6E7F
:10048800DECF26F0DDCF27F026C0FDFF27C0FEFF18
:10049800FF6A740EE66E000EE66E3DC0E6FF3EC0D3
:1004A800E6FF58EC06F0290E0624D96E040E072044
:1004B800DA6E010EDF6E0380F28E028E34C011F008
:1004C80033C010F032C00FF031C00EF030C007F06A
:1004D8002FC006F02EC0F4FF2DC0F3FF2CC0DAFFAA
:1004E8002BC0D9FF2AC0E2FF29C0E1FF1100080E86
:1004F800E126000EE222F29EE150F60FD96EE2509C
:10050800DA6EFF0EDA2205EEFEF0EECF10F0EDCF38
:1005180011F0740E1002F3CF0EF0F4CF0FF01102A9
:10052800F3500F262A0E0E24E96E040E0F20EA6EF1
:10053800DECFEEFFDDCFEDFFFE0EE36AFF0EE36ACE
:10054800FC0EFEC5E3FFFD0EFFC5E3FFF29EFC0EA9
:10055800E3CF10F0FD0EE3CF11F0740E1002F3CFCD
:100568000EF0F4CF0FF01102F3500F26290E0E24CF
:10057800D96E040E0F20DA6EDE04D8A4C6EF02F09E
:10058800C8EF02F0ABEF03F0E0500F6E106A116A8B
:10059800FC0EE3CF0CF0FD0EE3CF0DF0740E0C0251
:1005A800F3CF0AF0F4CF0BF00D02F3500B261E0E1A
:1005B8000A24D96E040E0B20DA6E0FC0DEFF10C0BD
:1005C800DEFF11C0DEFF0F6E106A116AFC0EE3CF6A
:1005D8000CF0FD0EE3CF0DF0740E0C02F3CF0AF011
:1005E800F4CF0BF00D02F3500B26210E0A24D96E1E
:1005F800040E0B20DA6E0FC0DEFF10C0DEFF11C044
:10060800DEFFD8500F6E106A116AFC0EE3CF0CF0B3
:10061800FD0EE3CF0DF0740E0C02F3CF0AF0F4CF09
:100628000BF00D02F3500B26240E0A24D96E040E8B
:100638000B20DA6E0FC0DEFF10C0DEFF11C0DEFF38
:10064800FE0EE3CF10F0FF0EE3CF11F0030E100201
:10065800F3CF0EF0F4CF0FF01102F3500F26FC0E7B
:10066800E3CF10F0FD0EE3CF11F0740E1002F3CFBC
:100678000CF0F4CF0DF01102F3500D26B80E106EE9
:10068800030E116E060E1026000E11220C501026B5
:100698000D5011220E501024D96E0F501120DA6E11
:1006A800FDCFDEFFFECFDEFFFFCFDEFF0600FE0E32
:1006B800E350010F066EFE0E06C0E3FF066AFF0E4A
:1006C800E3500620066EFF0E06C0E3FF0288FC50CA
:1006D800D8A471EF03F073EF03F024EF03F0E150B7
:1006E800FE0FD96EE250DA6EFF0EDA22FC0EE3CF6F
:1006F80010F0FD0EE3CF11F0740E1002F3CF0EF0E0
:10070800F4CF0FF01102F3500F26270E0E24E96ED6
:10071800040E0F20EA6EDECFEEFFDDCFEDFF02867E
:10072800FC0EE3CF10F0FD0EE3CF11F0740E1002B3
:10073800F3CF0EF0F4CF0FF01102F3500F26290E6D
:100748000E24D96E040E0F20DA6E020EDF6EF28EC2
:10075800ADEC07F0F80EFEC5E3FFF90EFFC5E3FFA9
:10076800F80EE3CF10F0F90EE3CF11F0740E10027B
:10077800F3CF0EF0F4CF0FF01102F3500F26270E2F
:100788000E24D96E040E0F20DA6EDECF10F0DDCF06
:1007980011F0FA0E10C0E3FFFB0E11C0E3FFF29E4A
:1007A800FC6AF80EE3CF10F0F90EE3CF11F0740EE7
:1007B8001002F3CF0EF0F4CF0FF01102F3500F2612
:1007C800270E0E24D96E040E0F20DA6EDE50DE10CE
:1007D800D8B4F1EF03F0F3EF03F093EF04F0F80E61
:1007E800E3CF10F0F90EE3CF11F0740E1002F3CF3F
:1007F8000EF0F4CF0FF01102F3500F261E0E0E2448
:10080800D96E040E0F20DA6EDF50E06EF80EE3CFDB
:1008180010F0F90EE3CF11F0740E1002F3CF0EF0C2
:10082800F4CF0FF01102F3500F26210E0E24D96ECB
:10083800040E0F20DA6EDF50116E1150F80EE3CF60
:1008480010F0F90EE3CF11F0740E1002F3CF0EF092
:10085800F4CF0FF01102F3500F26240E0E24D96E98
:10086800040E0F20DA6EDF50D86E83EF04F0FA0E14
:10087800E3CF06F0010E065EFA0E06C0E3FFFB0E9C
:10088800E3CF06F0000E065AFB0E06C0E3FF050094
:100898000284FA0EE3CF10F0FB0EE3CF11F0030E43
:1008A8001002F3CF0EF0F4CF0FF01102F3500F2621
:1008B800F80EE3CF10F0F90EE3CF11F0740E10022A
:1008C800F3CF0CF0F4CF0DF01102F3500D26B80E53
:1008D800106E030E116E060E1026000E11220C501B
:1008E80010260D5011220E501024D96E0F501120D1
:1008F800DA6EDECFFDFFDECFFEFFDDCFFFFF028227
:10090800FA0EE3CF06F0FB0EE3500610D8A48FEFE3
:1009180004F091EF04F03BEF04F0B3EF04F00500AE
:100928000280F80EE3CF10F0F90EE3CF11F0740E49
:100938001002F3CF0EF0F4CF0FF01102F3500F2690
:10094800BC0E0E24D96E030E0F20DA6EDECF10F027
:10095800DDCF11F010C0FDFF11C0FEFFFF6AF80ED9
:10096800E3CF10F0F90EE3CF11F0740E1002F3CFBD
:100978000EF0F4CF0FF01102F3500F26290E0E24BB
:10098800D96E040E0F20DA6E010EDF6EF28E018E24
:10099800F60EE126FF0EE2221200E652E652E65279
:1009A800E652FE0EE36AFF0EE36A25EEFCF0DECFA8
:1009B80010F0DDCF11F010C0E6FF11C0E6FF25EE04
:1009C800FEF0DECF10F0DDCF11F0010E1026000E84
:1009D800112210C0E6FF11C0E6FFE4EC05F0FC0EA2
:1009E80006C0E3FFFD0E07C0E3FF25EEFCF0FE0E98
:1009F800E350010F066EFE0E06C0E3FF066AFF0E07
:100A0800E3500620066EFF0E06C0E3FFFE0EE3501D
:100A1800DE1808E1FF0EE350DE18D8A416EF05F043
:100A280018EF05F01FEF05F00188000E066E000EA6
:100A3800076E65EF05F0FC0EE3CF10F0FD0EE3CF77
:100A480011F0740E1002F3CF0EF0F4CF0FF0110274
:100A5800F3500F26290E0E24D96E040E0F20DA6EDD
:100A6800DF50D8B43AEF05F03CEF05F05EEF05F043
:100A78000186FC0EE3CF10F0FD0EE3CF11F0740EEB
:100A88001002F3CF0EF0F4CF0FF01102F3500F263F
:100A9800BC0E0E24D96E030E0F20DA6E220EDE185D
:100AA80007E10F0EDE18D8A45CEF05F05EEF05F045
:100AB800D9EF04F00184FC0EE3CF06F0FD0EE3CF7E
:100AC80007F00182E552E552E552E5521200740E34
:100AD800E126000EE2228A0EE3CF06F08C0E06C055
:100AE800E3FF8B0EE3CF06F08D0E06C0E3FFE15067
:100AF800880FD96EE250DA6EFF0EDA228E0EE124EC
:100B0800E96EFF0EE220EA6EDECFEEFFDDCFEDFFED
:100B1800E150860FD96EE250DA6EFF0EDA22900E9F
:100B2800E124E96EFF0EE220EA6EDECFEEFFDDCFB4
:100B3800EDFFFD0EE124D96EFF0EE220DA6E000E05
:100B4800DF6EFB0EE124D96EFF0EE220DA6E000E96
:100B5800DE6E000EDD6EFE0EE124D96EFF0EE22081
:100B6800DA6E000EDE6E000EDD6E8C0EE124D96E9C
:100B7800FF0EE220DA6E05EEFCF0EECF10F0EDCFBE
:100B880011F0740E1002F3CF0EF0F4CF0FF0110233
:100B9800F3500F26B80E0E24E96E030E0F20EA6EEE
:100BA800730EDBCFEBFFE806FCE225EEFCF0DE2A55
:100BB800000EDD22028A860EE126FF0EE2221200D6
:100BC800E652FB0EE3CF06F0FC0EE3500610D8B455
:100BD800F0EF05F0F2EF05F04DEF06F0FF0EE36AD7
:100BE800E32A08EF06F0FB0EE350D890E834066ECF
:100BF800FB0E06C0E3FFFC0EE350E834066EFC0E65
:100C080006C0E3FFFF0EE32AFC0EE3AE0EEF06F08C
:100C180010EF06F0F7EF05F0FB0EE3CF10F0FC0E37
:100C2800E3CF11F0FD0EE3CF0EF0FE0EE3CF0FF091
:100C380010500E5C11500F58D8A025EF06F027EF82
:100C480006F039EF06F0FD0EE350066EFB0EE3509A
:100C5800065EFD0E06C0E3FFFE0EE350066EFC0EB8
:100C6800E350065AFE0E06C0E3FFD890FC0EE332AE
:100C7800FB0EE332FF0EE350066E010E065EFF0E1A
:100C880006C0E3FFD8A44BEF06F04DEF06F010EFD7
:100C980006F0FD0EE3CF06F0FE0EE3CF07F0FB0EE5
:100CA800E126FF0EE2221200E652E652FA0EE3CFE8
:100CB80011F0FC0EE3501102FE0EF3CFE3FFFF0E1E
:100CC800F4CFE3FFFB0EE124D96EFF0EE220DA6ECB
:100CD800DF50116EFC0EE3501102F3CFF4FFF36AFC
:100CE800E150FE0FD96EE250DA6EFF0EDA22F350B1
:100CF800DE26F450DD22FA0EE3CF11F0FD0EE124DA
:100D0800D96EFF0EE220DA6EDF501102F3CFF4FF46
:100D1800F36AE150FE0FD96EE250DA6EFF0EDA2266
:100D2800F350DE26F450DD22FE0EE3CF06F0FF0E70
:100D3800E3CF07F0FA0EE126FF0EE2221200E65298
:100D4800E652010E106E000E116EFE0E10C0E3FF8B
:100D5800FF0E11C0E3FF83B0B4EF06F0B7EF06F063
:100D6800010EB8EF06F0000EFF0A116E8C50111834
:100D7800FE0B11188C6E048EFE0EE3CF06F0FF0EEC
:100D8800E3500610D8B4CBEF06F0CDEF06F0AFEF86
:100D980006F0FE0EE36AFF0EE36A048C580EE66E58
:100DA800020EE66E7BEC02F0AFEF06F0E552E5527C
:100DB800120010EC07F0460EE66E0D0EE66E030EFE
:100DC800E66E000EE66E010EE66E000EE66E6BEC49
:100DD80005F0EC0EE66E0E0EE66E020EE66E000EE6
:100DE800E66E020EE66E000EE66E6BEC05F0B40ED3
:100DF800E66E0E0EE66E010EE66E000EE66E030E51
:100E0800E66E000EE66E6BEC05F0A5EC07F00582C9
:100E18000BEF07F006EF00F0000EE8CFFEF5000E2E
:100E2800E8CFFFF5000EE8CFFCF5000EE8CFFDF5A2
:100E3800220EE66E0F0EE66E000EE66E000EE66EF1
:100E4800000EE66E000EE66E6BEC05F09490938053
:100E5800F288F292F28CF28AF294D59ED59AD596BF
:100E6800D550F80B0509D56EB5EC07F0028C1200C9
:100E7800740EF66E0F0EF76E000EF86E0900F5CFC1
:100E88003FF00900F5CF40F003EEB8F022EE48F04D
:100E9800EE6ADD50D950FCE1DA50FAE1056A046ADD
:100EA800036A026A016A0001DDEF06F083B45FEFAE
:100EB80007F062EF07F0010E63EF07F0000EFF0A7C
:100EC800116E114611468C501118FB0B11188C6EBF
:100ED8000488E80EE66E030EE66E7BEC02F05AEF2D
:100EE80007F0120083B27BEF07F07EEF07F0010EE8
:100EF8007FEF07F0000EFF0A116E11468C50111893
:100F0800FD0B11188C6E048A200EE66E030EE66E39
:100F18007BEC02F076EF07F01200018A82B097EFBF
:100F280007F09AEF07F0010E9BEF07F0000EFF0A9B
:100F3800116E8B501118FE0B11188B6E91EF07F084
:100F48001200F28ED58E000ED76E400ED66E018C32
:100F58001200D1EC04F006C0FEF507C0FFF50180D1
:0E0F6800120095909592959405801200080055
:020000040020DA
:08000000FFFFFFFFFFFFFFFF00
:020000040030CA
:0E000000FF071F1EFF8185FF0FC00FE00F409E
:00000001FF
