:0400000006EF00F017
:100008000AED00F012EEBEF02FEF03F00600E1CF8C
:100018000FF0E2CF10F0D9CF11F0DACF12F0F3CF12
:1000280013F0F4CF14F028C015F029C016F033C02F
:1000380017F013EED4F0F2A224EF00F026EF00F050
:10004800CEEF01F0F292000E196E000E186EBCC2CF
:100058001CF0BDC21DF0F29E720EE66E000EE66E3A
:100068001CC0E6FF1DC0E6FFE1EC01F0630E28248A
:10007800D96E010E2920DA6EDE04D8A446EF00F00E
:1000880048EF00F0F2EF00F0E0500C6E0D6A0E6AD7
:10009800720EE66E000EE66E1CC0E6FF1DC0E6FF9F
:1000A800E1EC01F0580E2824D96E010E2920DA6EF1
:1000B8000CC0DEFF0DC0DEFF0EC0DEFF0C6E0D6A49
:1000C8000E6A720EE66E000EE66E1CC0E6FF1DC0DC
:1000D800E6FFE1EC01F05B0E2824D96E010E292021
:1000E800DA6E0CC0DEFF0DC0DEFF0EC0DEFFD8509A
:1000F8000C6E0D6A0E6A720EE66E000EE66E1CC07D
:10010800E6FF1DC0E6FFE1EC01F05E0E2824D96E83
:10011800010E2920DA6E0CC0DEFF0DC0DEFF0EC016
:10012800DEFF720EE66E000EE66E1CC0E6FF1DC016
:10013800E6FFE1EC01F0F20E0C6E000E0D6E060EFD
:100148000C26000E0D2228500C2629500D22030ED5
:10015800E66E000EE66E18C0E6FF19C0E6FFE1EC99
:1001680001F028500C24D96E29500D20DA6EFDCFED
:10017800DEFFFECFDEFFFFCFDEFF0600184A192A9A
:10018800FC50D8A4CAEF00F0CCEF00F095EF00F0D7
:10019800720EE66E000EE66E1CC0E6FF1DC0E6FF9E
:1001A800E1EC01F0610E2824D96E010E2920DA6EE7
:1001B80018C0DEFF19C0DDFF720EE66E000EE66E97
:1001C8001CC0E6FF1DC0E6FFE1EC01F0630E282429
:1001D800D96E010E2920DA6E000EDF6EF28EC6ECA3
:1001E80002F006C0BCF207C0BDF2BCC21EF0BDC220
:1001F8001FF0720EE66E000EE66E1EC0E6FF1FC010
:10020800E6FFE1EC01F0610E2824D96E010E2920E9
:10021800DA6EDECF1AF0DDCF1BF0F29E000EFC6E18
:10022800720EE66E000EE66E1EC0E6FF1FC0E6FF09
:10023800E1EC01F0610E2824D96E010E2920DA6E56
:10024800DE50DE10D8B42BEF01F02DEF01F0A1EF56
:1002580001F0720EE66E000EE66E1EC0E6FF1FC0CD
:10026800E6FFE1EC01F0580E2824D96E010E292092
:10027800DA6EDF50E06E720EE66E000EE66E1EC09D
:10028800E6FF1FC0E6FFE1EC01F05B0E2824D96E03
:10029800010E2920DA6EDF500C6E0C50720EE66EDD
:1002A800000EE66E1EC0E6FF1FC0E6FFE1EC01F09F
:1002B8005E0E2824D96E010E2920DA6EDF50D86E22
:1002C80096EF01F01A06D8A01B060500720EE66E1E
:1002D800000EE66E1EC0E6FF1FC0E6FFE1EC01F06F
:1002E800F20E0C6E000E0D6E060E0C26000E0D2280
:1002F80028500C2629500D22030EE66E000EE66EDD
:100308001AC0E6FF1BC0E6FFE1EC01F028500C2400
:10031800D96E29500D20DA6EDECFFDFFDECFFEFF4D
:10032800DDCFFFFF1A501B10D8A49DEF01F09FEFFF
:1003380001F066EF01F0BBEF01F00500720EE66E0A
:10034800000EE66E1EC0E6FF1FC0E6FFE1EC01F0FE
:10035800F60E2824D96E000E2920DA6EDECF0CF0B6
:10036800DDCF0DF00CC0FDFF0DC0FEFFFF6A720E61
:10037800E66E000EE66E1EC0E6FF1FC0E6FFE1EC6B
:1003880001F0630E2824D96E010E2920DA6E010EC1
:10039800DF6EF28E17C033F016C029F015C028F0B2
:1003A80014C0F4FF13C0F3FF12C0DAFF11C0D9FF65
:1003B80010C0E2FF0FC0E1FF1100E652E652FA0E4C
:1003C800E3CF33F0FC0EE3503302FE0EF3CFE3FF2E
:1003D800FF0EF4CFE3FFFB0EE124D96EFF0EE220FF
:1003E800DA6EDF50336EFC0EE3503302F3CFF4FFC6
:1003F800F36AE150FE0FD96EE250DA6EFF0EDA2290
:10040800F350DE26F450DD22FA0EE3CF33F0FD0E72
:10041800E124D96EFF0EE220DA6EDF503302F3CF0B
:10042800F4FFF36AE150FE0FD96EE250DA6EFF0E68
:10043800DA22F350DE26F450DD22FE0EE3CF28F058
:10044800FF0EE3CF29F0FA0EE126FF0EE22212009A
:1004580020C080F021C081F022C082F023C083F048
:1004680024C084F025C085F0000E0001F16F000E55
:10047800F06F000EEF6F720EE66E000EE66E22EE63
:10048800BAF0DECF26F0DDCF27F026C0E6FF27C082
:10049800E6FFE1EC01F0F20E2824E96E000E2920B7
:1004A800EA6E20EE80F0710EDBCFEBFFE806FCE28F
:1004B80022EEBAF0DE2A000EDD2212001DEC03F057
:1004C800000E216E010E206E000E236E010E226EAC
:1004D800140E246E060E256E2CEC02F0000E216E12
:1004E800020E206E000E236E010E226EEC0E246E9C
:1004F800050E256E2CEC02F0000E216E030E206E08
:10050800000E236E010E226EC20E246E050E256E9D
:100518002CEC02F040EC03F090EF02F006EF00F054
:1005280003500410D8B49BEF02F09DEF02F0C1EF26
:1005380002F0010E056EA5EF02F0D89003360436DE
:10054800052A04AEAAEF02F0ACEF02F0A1EF02F028
:100558000350015C04500258D8A0B5EF02F0B7EF81
:1005680002F0BBEF02F00350015E0450025AD8902B
:1005780004320332052EACEF02F001C001F002C0D4
:1005880002F0120022EEBCF0DECF08F0DDCF09F059
:10059800010E0824016E000E0920026EBAC203F093
:1005A800BBC204F094EC02F001C00AF002C00BF0E8
:1005B8000AC006F00BC007F0120083B4E6EF02F0A1
:1005C800E9EF02F0010EEAEF02F0000EFF0A336EC7
:1005D800334633468C503318FB0B33188C6EE1EFDF
:1005E80002F0120083B2FBEF02F0FEEF02F0010E00
:1005F800FFEF02F0000EFF0A336E33468C503318BB
:10060800FD0B33188C6EF6EF02F0120083B00FEF7B
:1006180003F012EF03F0010E13EF03F0000EFF0AD0
:10062800336E8C503318FE0B33188C6E0AEF03F0C0
:100638001200000EE8CFBCF2000EE8CFBDF2000EAB
:10064800E8CFBAF2000EE8CFBBF29380F288F292BC
:100658003CEC03F0120000EEF2F021EECCF0EE6A72
:10066800DD50D950FCE1DA50FAE1000162EF02F006
:0C0678009590959295941200F28E12005D
:020000040020DA
:08000000FFFFFFFFFFFFFFFF00
:020000040030CA
:0E000000FF071F1EFF8185FF0FC00FE00F409E
:00000001FF
