:0400000007EF00F016
:100008002D8209ED00F0AFEF05F00600D9CF1DF005
:10001800DACF1EF0F3CF1FF0F4CF20F0F2A217EFE3
:1000280000F019EF00F01DEF00F0048EF29257EF88
:1000380002F0048CF2A423EF00F025EF00F057EF54
:1000480002F0F294000ED76E400ED66E000E266EA9
:10005800000E256E8CEF00F025C006F026C007F0D4
:10006800000E096E740E086E5CEC06F0F20E0624A3
:10007800D96E010E0720DA6EDE50DE10D8B447EFD5
:1000880000F049EF00F089EF00F0048A25C006F07F
:1000980026C007F0000E096E740E086E5CEC06F0C0
:1000A800F20E0624D96E010E0720DA6EDE06000E67
:1000B800DD5A25C006F026C007F0000E096E740E42
:1000C800086E5CEC06F0F20E0624D96E010E0720CD
:1000D800DA6EDE50DE10D8A474EF00F076EF00F090
:1000E80089EF00F0048825C006F026C007F0000E4E
:1000F800096E740E086E5CEC06F0F10E0624D96EDB
:10010800010E0720DA6E000EDF6E0486254A262AC5
:1001180023EE50F0DE50255CDE502658D8A097EF2D
:1001280000F099EF00F030EF00F02B06D8A02C0675
:1001380004842B502C10D8A4A4EF00F0A6EF00F0F4
:1001480057EF02F0000E2C6E080E2B6E000E226E7A
:10015800000E216E52C327F053C328F0F29E27C029
:1001680006F028C007F0000E096E740E086E5CECED
:1001780006F0F10E0624D96E010E0720DA6EDE04B1
:10018800D8A4C9EF00F0CBEF00F077EF01F0E05012
:100198001A6E1B6A1C6A27C006F028C007F0000EFA
:1001A800096E740E086E5CEC06F0E60E0624D96E35
:1001B800010E0720DA6E1AC0DEFF1BC0DEFF1CC06E
:1001C800DEFF1A6E1B6A1C6A27C006F028C007F0FB
:1001D800000E096E740E086E5CEC06F0E90E06243B
:1001E800D96E010E0720DA6E1AC0DEFF1BC0DEFFD3
:1001F8001CC0DEFFD8501A6E1B6A1C6A27C006F0A6
:1002080028C007F0000E096E740E086E5CEC06F04C
:10021800EC0E0624D96E010E0720DA6E1AC0DEFF36
:100228001BC0DEFF1CC0DEFF27C006F028C007F099
:10023800000E096E740E086E5CEC06F0800E1A6EE5
:10024800010E1B6E060E1A26000E1B2206501A26D9
:1002580007501B2221C006F022C007F0000E096ECD
:10026800030E086E5CEC06F006501A24D96E07508F
:100278001B20DA6EFDCFDEFFFECFDEFFFFCFDEFFF5
:100288000600214A222A0482FC50D8A44EEF01F02D
:1002980050EF01F018EF01F0048027C006F028C0E5
:1002A80007F0000E096E740E086E5CEC06F0EF0E97
:1002B8000624D96E010E0720DA6E21C0DEFF22C0A7
:1002C800DDFF27C006F028C007F0000E096E740E87
:1002D800086E5CEC06F0F10E0624D96E010E0720BC
:1002E800DA6E000EDF6EF28E7BEC06F016C052F36B
:1002F80017C053F352C329F053C32AF029C006F09C
:100308002AC007F0000E096E740E086E5CEC06F049
:10031800EF0E0624D96E010E0720DA6EDECF23F029
:10032800DDCF24F0F29E000EFC6E29C006F02AC034
:1003380007F0000E096E740E086E5CEC06F0EF0E06
:100348000624D96E010E0720DA6EDE50DE10D8B40E
:10035800B0EF01F0B2EF01F028EF02F029C006F08B
:100368002AC007F0000E096E740E086E5CEC06F0E9
:10037800E60E0624D96E010E0720DA6EDF50E06E15
:1003880029C006F02AC007F0000E096E740E086E28
:100398005CEC06F0E90E0624D96E010E0720DA6E31
:1003A800DF501A6E1A5029C006F02AC007F0000E56
:1003B800096E740E086E5CEC06F0EC0E0624D96E1D
:1003C800010E0720DA6EDF50D86E1CEF02F023060C
:1003D800D8A024060500038E29C006F02AC007F01D
:1003E800000E096E740E086E5CEC06F0800E1A6E34
:1003F800010E1B6E060E1A26000E1B2206501A2628
:1004080007501B2223C006F024C007F0000E096E17
:10041800030E086E5CEC06F006501A24D96E0750DD
:100428001B20DA6EDECFFDFFDECFFEFFDDCFFFFF44
:10043800038C23502410D8A424EF02F026EF02F0F6
:10044800EBEF01F043EF02F00500038A29C006F044
:100458002AC007F0000E096E740E086E5CEC06F0F8
:10046800840E0624D96E010E0720DA6EDECF1AF04C
:10047800DDCF1BF01AC0FDFF1BC0FEFFFF6A29C0BD
:1004880006F02AC007F0000E096E740E086E5CECC8
:1004980006F0F10E0624D96E010E0720DA6E010E61
:1004A800DF6E0388F28E038620C0F4FF1FC0F3FFBF
:1004B8001EC0DAFF1DC0D9FF2D921100F29E52C353
:1004C800A6F053C3A7F0000E0001A96F740EA86F21
:1004D80048EC06F0F20E0001A625D96E010EA72100
:1004E800DA6EBAC0DEFFBBC0DDFF000EC06F000EC3
:1004F800BF6F52C3C3F053C3C4F0F29EC3C0A6F08B
:10050800C4C0A7F0000EA96F740EA86F48EC06F0DF
:10051800F10E0001A625D96E010EA721DA6EDE04C0
:10052800D8A499EF02F09BEF02F04FEF03F0E050F0
:10053800BC6FBD6BBE6BC3C0A6F0C4C0A7F0000EF5
:10054800A96F740EA86F48EC06F0E60E0001A62508
:10055800D96E010EA721DA6EBCC0DEFFBDC0DEFF7A
:10056800BEC0DEFFBC6FBD6BBE6BC3C0A6F0C4C00F
:10057800A7F0000EA96F740EA86F48EC06F0E90EFC
:100588000001A625D96E010EA721DA6EBCC0DEFFD8
:10059800BDC0DEFFBEC0DEFFD850BC6FBD6BBE6BFA
:1005A800C3C0A6F0C4C0A7F0000EA96F740EA86F50
:1005B80048EC06F0EC0E0001A625D96E010EA72125
:1005C800DA6EBCC0DEFFBDC0DEFFBEC0DEFFC3C04A
:1005D800A6F0C4C0A7F0000EA96F740EA86F48EC6F
:1005E80006F0800E0001BC6F010EBD6F060EBC2721
:1005F800000EBD23A651BC27A751BD23BFC0A6F03E
:10060800C0C0A7F0000EA96F030EA86F48EC06F053
:100618000001A651BC25D96EA751BD21DA6EFDCFC8
:10062800DEFFFECFDEFFFFCFDEFF06000001BF4B7F
:10063800C02B028EFC50D8A424EF03F026EF03F061
:10064800EBEF02F0028CC3C0A6F0C4C0A7F0000E06
:10065800A96F740EA86F48EC06F0EF0E0001A625EE
:10066800D96E010EA721DA6EBFC0DEFFC0C0DDFF64
:10067800C3C0A6F0C4C0A7F0000EA96F740EA86F7F
:1006880048EC06F0F10E0001A625D96E010EA7214F
:10069800DA6E020EDF6EF28E6FEC06F00001B6C065
:1006A80052F3B7C053F352C3C5F053C3C6F0C5C025
:1006B800A6F0C6C0A7F0000EA96F740EA86F48EC8C
:1006C80006F0EF0E0001A625D96E010EA721DA6EFD
:1006D800DECFC1F0DDCFC2F0F29E000EFC6EC5C0C9
:1006E800A6F0C6C0A7F0000EA96F740EA86F48EC5C
:1006F80006F0EF0E0001A625D96E010EA721DA6ECD
:10070800DE50DE10D8B48BEF03F08DEF03F009EF65
:1007180004F0C5C0A6F0C6C0A7F0000EA96F740EFD
:10072800A86F48EC06F0E60E0001A625D96E010E6A
:10073800A721DA6EDF50E06EC5C0A6F0C6C0A7F0EC
:10074800000EA96F740EA86F48EC06F0E90E0001C0
:10075800A625D96E010EA721DA6EDF50BC6FBC51F9
:10076800C5C0A6F0C6C0A7F0000EA96F740EA86F8A
:1007780048EC06F0EC0E0001A625D96E010EA72163
:10078800DA6EDF50D86EFDEF03F0C107D8A0C207BC
:100798000500028AC5C0A6F0C6C0A7F0000E000179
:1007A800A96F740EA86F48EC06F0800E0001BC6FAC
:1007B800010EBD6F060EBC27000EBD23A651BC2737
:1007C800A751BD23C1C0A6F0C2C0A7F0000EA96FF3
:1007D800030EA86F48EC06F00001A651BC25D96E9F
:1007E800A751BD21DA6EDECFFDFFDECFFEFFDDCFE4
:1007F800FFFF0288C151C211D8A405EF04F007EF2A
:1008080004F0C9EF03F026EF04F005000286C5C026
:10081800A6F0C6C0A7F0000E0001A96F740EA86F5D
:1008280048EC06F0840E0001A625D96E010EA7211A
:10083800DA6EDECFBCF0DDCFBDF0BCC0FDFFBDC0C1
:10084800FEFFFF6AC5C0A6F0C6C0A7F0000EA96FDC
:10085800740EA86F48EC06F0F10E0001A625D96EBB
:10086800010EA721DA6E010EDF6EF28E02841200ED
:10087800000E0001B36F000EB26F000EA76F000EDE
:10088800A66F000EA96F740EA86F48EC06F0820ED2
:100898000001A625D96E010EA721DA6EDECFB0F0D1
:1008A800DDCFB1F0000EB56F010EB46FAFEF04F0FD
:1008B800B4C0A6F0B5C0A7F0000EA96F740EA86F5B
:1008C80048EC06F0820E0001A625D96E010EA7217C
:1008D800DA6EB051DE5CB151DE58D8B076EF04F074
:1008E80078EF04F0ACEF04F00282B4C0A6F0B5C013
:1008F800A7F0000EA96F740EA86F48EC06F0F10E71
:100908000001A625D96E010EA721DA6EDF50D8A402
:1009180090EF04F092EF04F0ACEF04F0B4C0A6F04E
:10092800B5C0A7F0000EA96F740EA86F48EC06F0CA
:10093800820E0001A625D96E010EA721DA6EDECF40
:10094800B0F0DDCFB1F00280B4C0B2F0B5C0B3F002
:10095800018EB44BB52B23EE50F0DE50B45DDE5063
:10096800B559D8A0BAEF04F0BCEF04F05CEF04F07E
:10097800B2C0ACF0B3C0ADF0018C1200000E136E23
:10098800000E126E000E076E000E066E000E096E47
:10099800740E086E5CEC06F0820E0624D96E010E09
:1009A8000720DA6EDECF10F0DDCF11F0000E156EE5
:1009B800010E146E30EF05F014C006F015C007F0F4
:1009C800000E096E740E086E5CEC06F0820E0624AA
:1009D800D96E010E0720DA6E1050DE5C1150DE5819
:1009E800D8B0F9EF04F0FBEF04F02DEF05F0018823
:1009F80014C006F015C007F0000E096E740E086EDC
:100A08005CEC06F0F10E0624D96E010E0720DA6EB2
:100A1800DF50D8A412EF05F014EF05F02DEF05F024
:100A280014C006F015C007F0000E096E740E086EAB
:100A38005CEC06F0820E0624D96E010E0720DA6EF1
:100A4800DECF10F0DDCF11F0018614C012F015C012
:100A580013F00184144A152A23EE50F0DE50145C7A
:100A6800DE501558D8A03BEF05F03DEF05F0E0EF5C
:100A780004F012C00CF013C00DF001821200CFEC8C
:100A880005F0000E0101076F010E066F000E096FD9
:100A9800030E086F3E0E0A6F0C0E0B6F79EC05F013
:100AA800000E0101076F020E066F000E096F020E9D
:100AB800086F120E0A6F0C0E0B6F79EC05F0000E22
:100AC8000101076F030E066F000E096F010E086F14
:100AD800D80E0A6F0B0E0B6F79EC05F087EC06F059
:100AE800058874EF05F007EF00F006C10CF107C1A7
:100AF8000DF108C10EF109C10FF10AC110F10BC1C6
:100B080011F1000E01017D6F000E7C6F000E7B6FEE
:100B1800000E7F6F000E7E6F21EE0CF050C300F1C7
:100B280051C301F1000E036F740E026F34EC06F02E
:100B3800800E01010025E16E010E0121E26E730EA7
:100B4800DBCFE3FFE806FCE223EE50F0DE2A000EDE
:100B5800DD2203821200280EF66E0D0EF76E000ECF
:100B6800F86E0900F5CF2BF00900F5CF2CF001EE57
:100B780080F011EED4F0EE6AE550E150FCE1E2506D
:100B8800FAE1056A046A036A026A016A2D902D92E5
:100B9800000143EF05F0000EE8CF52F3000EE8CF56
:100BA80053F3000EE8CF50F3000EE8CF51F39380D3
:100BB800F288F292F28CF28AF294D59ED59AD59662
:100BC800D550F80B0509D56E8FEC06F0038412009A
:100BD80083B4F1EF05F0F4EF05F0010EF5EF05F041
:100BE800000EFF0A0001C76FC747C7478C50C719D7
:100BF800FB0BC7198C6E0580000EBB6F1E0EBA6FFB
:100C080062EC02F0ECEF05F01200058283B20FEF00
:100C180006F012EF06F0010E13EF06F0000EFF0AC1
:100C28000001A56FA5478C50A519FD0BA5198C6E61
:100C380009EF06F01200058483B025EF06F028EFCF
:100C480006F0010E29EF06F0000EFF0A0001A46F5E
:100C58008C50A419FE0BA4198C6E1FEF06F012001D
:100C6800010100510203F3CF04F1F4CF05F1005163
:100C78000303F350052701510203F350052704C16C
:100C880000F105C101F112000001A651A803F3CF3C
:100C9800AAF0F4CFABF0A651A903F350AB27A751A4
:100CA800A803F350AB27AAC0A6F0ABC0A7F0120068
:100CB80006500802F3CF0AF0F4CF0BF006500902F1
:100CC800F3500B2607500802F3500B260AC006F013
:100CD8000BC007F012003CEC04F0ACC0B8F0ADC09B
:100CE800B9F0B8C0B6F0B9C0B7F0018A1200C2ECCA
:100CF80004F00CC018F00DC019F018C016F019C097
:100D080017F001801200F28ED58E000ED76E400EBD
:100D1800D66E0380120095909592959405861200E0
:020D28000800C1
:020000040020DA
:08000000FFFFFFFFFFFFFFFF00
:020000040030CA
:0E000000FF071F1EFF8185FF0FC00FE00F409E
:00000001FF
